{
  "_format": "hh-sol-artifact-1",
  "contractName": "CampaignFactory",
  "sourceName": "contracts/CampaignFactory.sol",
  "abi": [
    {
      "anonymous": false,
      "inputs": [
        {
          "indexed": true,
          "internalType": "address",
          "name": "creator",
          "type": "address"
        },
        {
          "indexed": true,
          "internalType": "address",
          "name": "campaignAddress",
          "type": "address"
        }
      ],
      "name": "NewCampaignEvent",
      "type": "event"
    },
    {
      "anonymous": false,
      "inputs": [
        {
          "indexed": true,
          "internalType": "address",
          "name": "previousOwner",
          "type": "address"
        },
        {
          "indexed": true,
          "internalType": "address",
          "name": "newOwner",
          "type": "address"
        }
      ],
      "name": "OwnershipTransferred",
      "type": "event"
    },
    {
      "anonymous": false,
      "inputs": [
        {
          "indexed": false,
          "internalType": "address",
          "name": "account",
          "type": "address"
        }
      ],
      "name": "Paused",
      "type": "event"
    },
    {
      "anonymous": false,
      "inputs": [
        {
          "indexed": false,
          "internalType": "address",
          "name": "account",
          "type": "address"
        }
      ],
      "name": "Unpaused",
      "type": "event"
    },
    {
      "inputs": [
        {
          "internalType": "address",
          "name": "token",
          "type": "address"
        }
      ],
      "name": "createCampaign",
      "outputs": [
        {
          "internalType": "address",
          "name": "",
          "type": "address"
        }
      ],
      "stateMutability": "nonpayable",
      "type": "function"
    },
    {
      "inputs": [],
      "name": "owner",
      "outputs": [
        {
          "internalType": "address",
          "name": "",
          "type": "address"
        }
      ],
      "stateMutability": "view",
      "type": "function"
    },
    {
      "inputs": [],
      "name": "pause",
      "outputs": [],
      "stateMutability": "nonpayable",
      "type": "function"
    },
    {
      "inputs": [],
      "name": "paused",
      "outputs": [
        {
          "internalType": "bool",
          "name": "",
          "type": "bool"
        }
      ],
      "stateMutability": "view",
      "type": "function"
    },
    {
      "inputs": [],
      "name": "renounceOwnership",
      "outputs": [],
      "stateMutability": "nonpayable",
      "type": "function"
    },
    {
      "inputs": [
        {
          "internalType": "address",
          "name": "newOwner",
          "type": "address"
        }
      ],
      "name": "transferOwnership",
      "outputs": [],
      "stateMutability": "nonpayable",
      "type": "function"
    },
    {
      "inputs": [],
      "name": "unpause",
      "outputs": [],
      "stateMutability": "nonpayable",
      "type": "function"
    }
  ],
  "bytecode": "0x608060405234801561001057600080fd5b5061002d61002261004c60201b60201c565b61005460201b60201c565b60008060146101000a81548160ff021916908315150217905550610118565b600033905090565b60008060009054906101000a900473ffffffffffffffffffffffffffffffffffffffff169050816000806101000a81548173ffffffffffffffffffffffffffffffffffffffff021916908373ffffffffffffffffffffffffffffffffffffffff1602179055508173ffffffffffffffffffffffffffffffffffffffff168173ffffffffffffffffffffffffffffffffffffffff167f8be0079c531659141344cd1fd0a4f28419497f9722a3daafe3b4186f6b6457e060405160405180910390a35050565b612f41806101276000396000f3fe60806040523480156200001157600080fd5b5060043610620000885760003560e01c8063715018a61162000063578063715018a614620000f15780638456cb5914620000fd5780638da5cb5b1462000109578063f2fde38b146200012b5762000088565b80633f4ba83a146200008d5780634b1d270f14620000995780635c975abb14620000cf575b600080fd5b620000976200014b565b005b620000b76004803603810190620000b19190620005f6565b62000161565b604051620000c69190620006e0565b60405180910390f35b620000d96200021a565b604051620000e891906200073a565b60405180910390f35b620000fb62000230565b005b6200010762000248565b005b620001136200025e565b604051620001229190620006e0565b60405180910390f35b620001496004803603810190620001439190620005f6565b62000287565b005b6200015562000312565b6200015f62000397565b565b60006200016d620003ff565b600082336200017b6200025e565b6040516200018990620005d1565b6200019793929190620006fd565b604051809103906000f080158015620001b4573d6000803e3d6000fd5b5090508073ffffffffffffffffffffffffffffffffffffffff163373ffffffffffffffffffffffffffffffffffffffff167fc03556781d5d96ce301e9e3060bab1fa1d0d058e53a620462bad7518b255ac6960405160405180910390a380915050919050565b60008060149054906101000a900460ff16905090565b6200023a62000312565b6200024660006200044e565b565b6200025262000312565b6200025c62000512565b565b60008060009054906101000a900473ffffffffffffffffffffffffffffffffffffffff16905090565b6200029162000312565b600073ffffffffffffffffffffffffffffffffffffffff168173ffffffffffffffffffffffffffffffffffffffff16141562000304576040517f08c379a0000000000000000000000000000000000000000000000000000000008152600401620002fb9062000779565b60405180910390fd5b6200030f816200044e565b50565b6200031c6200057b565b73ffffffffffffffffffffffffffffffffffffffff166200033c6200025e565b73ffffffffffffffffffffffffffffffffffffffff161462000395576040517f08c379a00000000000000000000000000000000000000000000000000000000081526004016200038c90620007bd565b60405180910390fd5b565b620003a162000583565b60008060146101000a81548160ff0219169083151502179055507f5db9ee0a495bf2e6ff9c91a7834c1ba4fdd244a5e8aa4e537bd38aeae4b073aa620003e66200057b565b604051620003f59190620006e0565b60405180910390a1565b620004096200021a565b156200044c576040517f08c379a000000000000000000000000000000000000000000000000000000000815260040162000443906200079b565b60405180910390fd5b565b60008060009054906101000a900473ffffffffffffffffffffffffffffffffffffffff169050816000806101000a81548173ffffffffffffffffffffffffffffffffffffffff021916908373ffffffffffffffffffffffffffffffffffffffff1602179055508173ffffffffffffffffffffffffffffffffffffffff168173ffffffffffffffffffffffffffffffffffffffff167f8be0079c531659141344cd1fd0a4f28419497f9722a3daafe3b4186f6b6457e060405160405180910390a35050565b6200051c620003ff565b6001600060146101000a81548160ff0219169083151502179055507f62e78cea01bee320cd4e420270b5ea74000d11b0c9f74754ebdbfc544b05a258620005626200057b565b604051620005719190620006e0565b60405180910390a1565b600033905090565b6200058d6200021a565b620005cf576040517f08c379a0000000000000000000000000000000000000000000000000000000008152600401620005c69062000757565b60405180910390fd5b565b6125f7806200091583390190565b600081359050620005f081620008fa565b92915050565b6000602082840312156200060957600080fd5b60006200061984828501620005df565b91505092915050565b6200062d81620007f0565b82525050565b6200063e8162000804565b82525050565b600062000653601483620007df565b9150620006608262000830565b602082019050919050565b60006200067a602683620007df565b9150620006878262000859565b604082019050919050565b6000620006a1601083620007df565b9150620006ae82620008a8565b602082019050919050565b6000620006c8602083620007df565b9150620006d582620008d1565b602082019050919050565b6000602082019050620006f7600083018462000622565b92915050565b600060608201905062000714600083018662000622565b62000723602083018562000622565b62000732604083018462000622565b949350505050565b600060208201905062000751600083018462000633565b92915050565b60006020820190508181036000830152620007728162000644565b9050919050565b6000602082019050818103600083015262000794816200066b565b9050919050565b60006020820190508181036000830152620007b68162000692565b9050919050565b60006020820190508181036000830152620007d881620006b9565b9050919050565b600082825260208201905092915050565b6000620007fd8262000810565b9050919050565b60008115159050919050565b600073ffffffffffffffffffffffffffffffffffffffff82169050919050565b7f5061757361626c653a206e6f7420706175736564000000000000000000000000600082015250565b7f4f776e61626c653a206e6577206f776e657220697320746865207a65726f206160008201527f6464726573730000000000000000000000000000000000000000000000000000602082015250565b7f5061757361626c653a2070617573656400000000000000000000000000000000600082015250565b7f4f776e61626c653a2063616c6c6572206973206e6f7420746865206f776e6572600082015250565b6200090581620007f0565b81146200091157600080fd5b5056fe60a060405260646001553480156200001657600080fd5b50604051620025f7380380620025f783398181016040528101906200003c91906200042c565b6200005c620000506200011860201b60201c565b6200012060201b60201c565b60008060146101000a81548160ff0219169083151502179055508273ffffffffffffffffffffffffffffffffffffffff1660808173ffffffffffffffffffffffffffffffffffffffff1660601b81525050620000be82620001e460201b60201c565b80600360006101000a81548173ffffffffffffffffffffffffffffffffffffffff021916908373ffffffffffffffffffffffffffffffffffffffff1602179055506200010f6200027b60201b60201c565b5050506200068b565b600033905090565b60008060009054906101000a900473ffffffffffffffffffffffffffffffffffffffff169050816000806101000a81548173ffffffffffffffffffffffffffffffffffffffff021916908373ffffffffffffffffffffffffffffffffffffffff1602179055508173ffffffffffffffffffffffffffffffffffffffff168173ffffffffffffffffffffffffffffffffffffffff167f8be0079c531659141344cd1fd0a4f28419497f9722a3daafe3b4186f6b6457e060405160405180910390a35050565b620001f4620002f060201b60201c565b600073ffffffffffffffffffffffffffffffffffffffff168173ffffffffffffffffffffffffffffffffffffffff16141562000267576040517f08c379a00000000000000000000000000000000000000000000000000000000081526004016200025e9062000525565b60405180910390fd5b62000278816200012060201b60201c565b50565b6200028b6200038160201b60201c565b6001600060146101000a81548160ff0219169083151502179055507f62e78cea01bee320cd4e420270b5ea74000d11b0c9f74754ebdbfc544b05a258620002d76200011860201b60201c565b604051620002e6919062000508565b60405180910390a1565b620003006200011860201b60201c565b73ffffffffffffffffffffffffffffffffffffffff1662000326620003d660201b60201c565b73ffffffffffffffffffffffffffffffffffffffff16146200037f576040517f08c379a0000000000000000000000000000000000000000000000000000000008152600401620003769062000569565b60405180910390fd5b565b62000391620003ff60201b60201c565b15620003d4576040517f08c379a0000000000000000000000000000000000000000000000000000000008152600401620003cb9062000547565b60405180910390fd5b565b60008060009054906101000a900473ffffffffffffffffffffffffffffffffffffffff16905090565b60008060149054906101000a900460ff16905090565b600081519050620004268162000671565b92915050565b6000806000606084860312156200044257600080fd5b6000620004528682870162000415565b9350506020620004658682870162000415565b9250506040620004788682870162000415565b9150509250925092565b6200048d816200059c565b82525050565b6000620004a26026836200058b565b9150620004af82620005d0565b604082019050919050565b6000620004c96010836200058b565b9150620004d6826200061f565b602082019050919050565b6000620004f06020836200058b565b9150620004fd8262000648565b602082019050919050565b60006020820190506200051f600083018462000482565b92915050565b60006020820190508181036000830152620005408162000493565b9050919050565b600060208201905081810360008301526200056281620004ba565b9050919050565b600060208201905081810360008301526200058481620004e1565b9050919050565b600082825260208201905092915050565b6000620005a982620005b0565b9050919050565b600073ffffffffffffffffffffffffffffffffffffffff82169050919050565b7f4f776e61626c653a206e6577206f776e657220697320746865207a65726f206160008201527f6464726573730000000000000000000000000000000000000000000000000000602082015250565b7f5061757361626c653a2070617573656400000000000000000000000000000000600082015250565b7f4f776e61626c653a2063616c6c6572206973206e6f7420746865206f776e6572600082015250565b6200067c816200059c565b81146200068857600080fd5b50565b60805160601c611f38620006bf600039600081816105d501528181610877015281816108c40152610ad50152611f386000f3fe6080604052600436106100f75760003560e01c80638cc080251161008a578063c7f7057411610059578063c7f7057414610310578063ed01bf2914610339578063f2fde38b14610364578063fc0c546a1461038d57610137565b80638cc08025146102565780638da5cb5b146102935780639d55fba7146102be578063be999705146102e757610137565b80635970e13d116100c65780635970e13d146101d25780635c975abb146101fd578063715018a6146102285780638456cb591461023f57610137565b8063057cc53a1461013c5780632eb4a7ab146101675780633d13f874146101925780633f4ba83a146101bb57610137565b36610137577f88a5966d370b9919b20f3e2c13ff65706f196a4e32cc2c12bf57088f88525874333460405161012d9291906116d8565b60405180910390a1005b600080fd5b34801561014857600080fd5b506101516103b8565b60405161015e91906118f9565b60405180910390f35b34801561017357600080fd5b5061017c6103be565b604051610189919061171c565b60405180910390f35b34801561019e57600080fd5b506101b960048036038101906101b491906112c1565b6103c4565b005b3480156101c757600080fd5b506101d061066f565b005b3480156101de57600080fd5b506101e7610681565b6040516101f49190611686565b60405180910390f35b34801561020957600080fd5b506102126106a7565b60405161021f9190611701565b60405180910390f35b34801561023457600080fd5b5061023d6106bd565b005b34801561024b57600080fd5b506102546106d1565b005b34801561026257600080fd5b5061027d60048036038101906102789190611298565b6106e3565b60405161028a9190611701565b60405180910390f35b34801561029f57600080fd5b506102a8610703565b6040516102b59190611686565b60405180910390f35b3480156102ca57600080fd5b506102e560048036038101906102e0919061137f565b61072c565b005b3480156102f357600080fd5b5061030e6004803603810190610309919061137f565b610816565b005b34801561031c57600080fd5b5061033760048036038101906103329190611356565b610960565b005b34801561034557600080fd5b5061034e610a49565b60405161035b91906118f9565b60405180910390f35b34801561037057600080fd5b5061038b60048036038101906103869190611298565b610a4f565b005b34801561039957600080fd5b506103a2610ad3565b6040516103af9190611686565b60405180910390f35b60015481565b60025481565b6103cc610af7565b600560008573ffffffffffffffffffffffffffffffffffffffff1673ffffffffffffffffffffffffffffffffffffffff16815260200190815260200160002060009054906101000a900460ff1615610459576040517f08c379a0000000000000000000000000000000000000000000000000000000008152600401610450906117d9565b60405180910390fd5b82600454101561049e576040517f08c379a000000000000000000000000000000000000000000000000000000000815260040161049590611839565b60405180910390fd5b600083856040516020016104b392919061165a565b604051602081830303815290604052805190602001209050600061051b848480806020026020016040519081016040528093929190818152602001838360200280828437600081840152601f19601f8201169050808301925050505050505060025484610b41565b90508061055d576040517f08c379a0000000000000000000000000000000000000000000000000000000008152600401610554906118b9565b60405180910390fd5b846004600082825461056f9190611a27565b925050819055506001600560008873ffffffffffffffffffffffffffffffffffffffff1673ffffffffffffffffffffffffffffffffffffffff16815260200190815260200160002060006101000a81548160ff02191690831515021790555061061986867f000000000000000000000000000000000000000000000000000000000000000073ffffffffffffffffffffffffffffffffffffffff16610b589092919063ffffffff16565b8573ffffffffffffffffffffffffffffffffffffffff167f47cee97cb7acd717b3c0aa1435d004cd5b3c8c57d70dbceb4e4458bbd60e39d48660405161065f91906118f9565b60405180910390a2505050505050565b610677610bde565b61067f610c5c565b565b600360009054906101000a900473ffffffffffffffffffffffffffffffffffffffff1681565b60008060149054906101000a900460ff16905090565b6106c5610bde565b6106cf6000610cbe565b565b6106d9610bde565b6106e1610d82565b565b60056020528060005260406000206000915054906101000a900460ff1681565b60008060009054906101000a900473ffffffffffffffffffffffffffffffffffffffff16905090565b600360009054906101000a900473ffffffffffffffffffffffffffffffffffffffff1673ffffffffffffffffffffffffffffffffffffffff163373ffffffffffffffffffffffffffffffffffffffff16146107bc576040517f08c379a00000000000000000000000000000000000000000000000000000000081526004016107b390611859565b60405180910390fd5b6000811180156107cd575061271081105b61080c576040517f08c379a000000000000000000000000000000000000000000000000000000000815260040161080390611899565b60405180910390fd5b8060018190555050565b61081e610bde565b60006127106001548361083191906119cd565b61083b919061199c565b90506000818361084b9190611a27565b90506108bc33600360009054906101000a900473ffffffffffffffffffffffffffffffffffffffff16847f000000000000000000000000000000000000000000000000000000000000000073ffffffffffffffffffffffffffffffffffffffff16610de5909392919063ffffffff16565b6109093330837f000000000000000000000000000000000000000000000000000000000000000073ffffffffffffffffffffffffffffffffffffffff16610de5909392919063ffffffff16565b806004600082825461091b9190611946565b925050819055507fb2c1ef1af6f22387bff22e29c3ccbfb9bb09a36d60cd676e7a2ad40cf876592533846040516109539291906116d8565b60405180910390a1505050565b600360009054906101000a900473ffffffffffffffffffffffffffffffffffffffff1673ffffffffffffffffffffffffffffffffffffffff163373ffffffffffffffffffffffffffffffffffffffff16146109f0576040517f08c379a00000000000000000000000000000000000000000000000000000000081526004016109e790611859565b60405180910390fd5b6000801b60025414610a37576040517f08c379a0000000000000000000000000000000000000000000000000000000008152600401610a2e906117b9565b60405180910390fd5b80600281905550610a46610c5c565b50565b60045481565b610a57610bde565b600073ffffffffffffffffffffffffffffffffffffffff168173ffffffffffffffffffffffffffffffffffffffff161415610ac7576040517f08c379a0000000000000000000000000000000000000000000000000000000008152600401610abe90611779565b60405180910390fd5b610ad081610cbe565b50565b7f000000000000000000000000000000000000000000000000000000000000000081565b610aff6106a7565b15610b3f576040517f08c379a0000000000000000000000000000000000000000000000000000000008152600401610b36906117f9565b60405180910390fd5b565b600082610b4e8584610e6e565b1490509392505050565b610bd98363a9059cbb60e01b8484604051602401610b779291906116d8565b604051602081830303815290604052907bffffffffffffffffffffffffffffffffffffffffffffffffffffffff19166020820180517bffffffffffffffffffffffffffffffffffffffffffffffffffffffff8381831617835250505050610eea565b505050565b610be6610fb1565b73ffffffffffffffffffffffffffffffffffffffff16610c04610703565b73ffffffffffffffffffffffffffffffffffffffff1614610c5a576040517f08c379a0000000000000000000000000000000000000000000000000000000008152600401610c5190611819565b60405180910390fd5b565b610c64610fb9565b60008060146101000a81548160ff0219169083151502179055507f5db9ee0a495bf2e6ff9c91a7834c1ba4fdd244a5e8aa4e537bd38aeae4b073aa610ca7610fb1565b604051610cb49190611686565b60405180910390a1565b60008060009054906101000a900473ffffffffffffffffffffffffffffffffffffffff169050816000806101000a81548173ffffffffffffffffffffffffffffffffffffffff021916908373ffffffffffffffffffffffffffffffffffffffff1602179055508173ffffffffffffffffffffffffffffffffffffffff168173ffffffffffffffffffffffffffffffffffffffff167f8be0079c531659141344cd1fd0a4f28419497f9722a3daafe3b4186f6b6457e060405160405180910390a35050565b610d8a610af7565b6001600060146101000a81548160ff0219169083151502179055507f62e78cea01bee320cd4e420270b5ea74000d11b0c9f74754ebdbfc544b05a258610dce610fb1565b604051610ddb9190611686565b60405180910390a1565b610e68846323b872dd60e01b858585604051602401610e06939291906116a1565b604051602081830303815290604052907bffffffffffffffffffffffffffffffffffffffffffffffffffffffff19166020820180517bffffffffffffffffffffffffffffffffffffffffffffffffffffffff8381831617835250505050610eea565b50505050565b60008082905060005b8451811015610edf57610eca82868381518110610ebd577f4e487b7100000000000000000000000000000000000000000000000000000000600052603260045260246000fd5b6020026020010151611002565b91508080610ed790611ae0565b915050610e77565b508091505092915050565b6000610f4c826040518060400160405280602081526020017f5361666545524332303a206c6f772d6c6576656c2063616c6c206661696c65648152508573ffffffffffffffffffffffffffffffffffffffff1661102d9092919063ffffffff16565b9050600081511115610fac5780806020019051810190610f6c919061132d565b610fab576040517f08c379a0000000000000000000000000000000000000000000000000000000008152600401610fa2906118d9565b60405180910390fd5b5b505050565b600033905090565b610fc16106a7565b611000576040517f08c379a0000000000000000000000000000000000000000000000000000000008152600401610ff790611759565b60405180910390fd5b565b600081831061101a576110158284611045565b611025565b6110248383611045565b5b905092915050565b606061103c848460008561105c565b90509392505050565b600082600052816020526040600020905092915050565b6060824710156110a1576040517f08c379a000000000000000000000000000000000000000000000000000000000815260040161109890611799565b60405180910390fd5b6110aa85611170565b6110e9576040517f08c379a00000000000000000000000000000000000000000000000000000000081526004016110e090611879565b60405180910390fd5b6000808673ffffffffffffffffffffffffffffffffffffffff1685876040516111129190611643565b60006040518083038185875af1925050503d806000811461114f576040519150601f19603f3d011682016040523d82523d6000602084013e611154565b606091505b5091509150611164828286611193565b92505050949350505050565b6000808273ffffffffffffffffffffffffffffffffffffffff163b119050919050565b606083156111a3578290506111f3565b6000835111156111b65782518084602001fd5b816040517f08c379a00000000000000000000000000000000000000000000000000000000081526004016111ea9190611737565b60405180910390fd5b9392505050565b60008135905061120981611ea6565b92915050565b60008083601f84011261122157600080fd5b8235905067ffffffffffffffff81111561123a57600080fd5b60208301915083602082028301111561125257600080fd5b9250929050565b60008151905061126881611ebd565b92915050565b60008135905061127d81611ed4565b92915050565b60008135905061129281611eeb565b92915050565b6000602082840312156112aa57600080fd5b60006112b8848285016111fa565b91505092915050565b600080600080606085870312156112d757600080fd5b60006112e5878288016111fa565b94505060206112f687828801611283565b935050604085013567ffffffffffffffff81111561131357600080fd5b61131f8782880161120f565b925092505092959194509250565b60006020828403121561133f57600080fd5b600061134d84828501611259565b91505092915050565b60006020828403121561136857600080fd5b60006113768482850161126e565b91505092915050565b60006020828403121561139157600080fd5b600061139f84828501611283565b91505092915050565b6113b181611a5b565b82525050565b6113c86113c382611a5b565b611b29565b82525050565b6113d781611a6d565b82525050565b6113e681611a79565b82525050565b60006113f782611914565b611401818561192a565b9350611411818560208601611aad565b80840191505092915050565b60006114288261191f565b6114328185611935565b9350611442818560208601611aad565b61144b81611bb5565b840191505092915050565b6000611463601483611935565b915061146e82611bd3565b602082019050919050565b6000611486602683611935565b915061149182611bfc565b604082019050919050565b60006114a9602683611935565b91506114b482611c4b565b604082019050919050565b60006114cc601e83611935565b91506114d782611c9a565b602082019050919050565b60006114ef601083611935565b91506114fa82611cc3565b602082019050919050565b6000611512601083611935565b915061151d82611cec565b602082019050919050565b6000611535602083611935565b915061154082611d15565b602082019050919050565b6000611558601d83611935565b915061156382611d3e565b602082019050919050565b600061157b602283611935565b915061158682611d67565b604082019050919050565b600061159e601d83611935565b91506115a982611db6565b602082019050919050565b60006115c1602883611935565b91506115cc82611ddf565b604082019050919050565b60006115e4600e83611935565b91506115ef82611e2e565b602082019050919050565b6000611607602a83611935565b915061161282611e57565b604082019050919050565b61162681611aa3565b82525050565b61163d61163882611aa3565b611b4d565b82525050565b600061164f82846113ec565b915081905092915050565b6000611666828561162c565b60208201915061167682846113b7565b6014820191508190509392505050565b600060208201905061169b60008301846113a8565b92915050565b60006060820190506116b660008301866113a8565b6116c360208301856113a8565b6116d0604083018461161d565b949350505050565b60006040820190506116ed60008301856113a8565b6116fa602083018461161d565b9392505050565b600060208201905061171660008301846113ce565b92915050565b600060208201905061173160008301846113dd565b92915050565b60006020820190508181036000830152611751818461141d565b905092915050565b6000602082019050818103600083015261177281611456565b9050919050565b6000602082019050818103600083015261179281611479565b9050919050565b600060208201905081810360008301526117b28161149c565b9050919050565b600060208201905081810360008301526117d2816114bf565b9050919050565b600060208201905081810360008301526117f2816114e2565b9050919050565b6000602082019050818103600083015261181281611505565b9050919050565b6000602082019050818103600083015261183281611528565b9050919050565b600060208201905081810360008301526118528161154b565b9050919050565b600060208201905081810360008301526118728161156e565b9050919050565b6000602082019050818103600083015261189281611591565b9050919050565b600060208201905081810360008301526118b2816115b4565b9050919050565b600060208201905081810360008301526118d2816115d7565b9050919050565b600060208201905081810360008301526118f2816115fa565b9050919050565b600060208201905061190e600083018461161d565b92915050565b600081519050919050565b600081519050919050565b600081905092915050565b600082825260208201905092915050565b600061195182611aa3565b915061195c83611aa3565b9250827fffffffffffffffffffffffffffffffffffffffffffffffffffffffffffffffff0382111561199157611990611b57565b5b828201905092915050565b60006119a782611aa3565b91506119b283611aa3565b9250826119c2576119c1611b86565b5b828204905092915050565b60006119d882611aa3565b91506119e383611aa3565b9250817fffffffffffffffffffffffffffffffffffffffffffffffffffffffffffffffff0483118215151615611a1c57611a1b611b57565b5b828202905092915050565b6000611a3282611aa3565b9150611a3d83611aa3565b925082821015611a5057611a4f611b57565b5b828203905092915050565b6000611a6682611a83565b9050919050565b60008115159050919050565b6000819050919050565b600073ffffffffffffffffffffffffffffffffffffffff82169050919050565b6000819050919050565b60005b83811015611acb578082015181840152602081019050611ab0565b83811115611ada576000848401525b50505050565b6000611aeb82611aa3565b91507fffffffffffffffffffffffffffffffffffffffffffffffffffffffffffffffff821415611b1e57611b1d611b57565b5b600182019050919050565b6000611b3482611b3b565b9050919050565b6000611b4682611bc6565b9050919050565b6000819050919050565b7f4e487b7100000000000000000000000000000000000000000000000000000000600052601160045260246000fd5b7f4e487b7100000000000000000000000000000000000000000000000000000000600052601260045260246000fd5b6000601f19601f8301169050919050565b60008160601b9050919050565b7f5061757361626c653a206e6f7420706175736564000000000000000000000000600082015250565b7f4f776e61626c653a206e6577206f776e657220697320746865207a65726f206160008201527f6464726573730000000000000000000000000000000000000000000000000000602082015250565b7f416464726573733a20696e73756666696369656e742062616c616e636520666f60008201527f722063616c6c0000000000000000000000000000000000000000000000000000602082015250565b7f546865206d65726b6c6520726f6f7420697320616c7265616479207365740000600082015250565b7f416c726561647920636c61696d65642e00000000000000000000000000000000600082015250565b7f5061757361626c653a2070617573656400000000000000000000000000000000600082015250565b7f4f776e61626c653a2063616c6c6572206973206e6f7420746865206f776e6572600082015250565b7f4e6f7420656e6f7567682066756e647320696e2063616d706169676e2e000000600082015250565b7f43616c6c6572206973206e6f742074686520706f73746d696e74206163636f7560008201527f6e74000000000000000000000000000000000000000000000000000000000000602082015250565b7f416464726573733a2063616c6c20746f206e6f6e2d636f6e7472616374000000600082015250565b7f636f6d6d697373696f6e4270206d757374206265206265747765656e2030206160008201527f6e64203130303030000000000000000000000000000000000000000000000000602082015250565b7f496e76616c69642070726f6f662e000000000000000000000000000000000000600082015250565b7f5361666545524332303a204552433230206f7065726174696f6e20646964206e60008201527f6f74207375636365656400000000000000000000000000000000000000000000602082015250565b611eaf81611a5b565b8114611eba57600080fd5b50565b611ec681611a6d565b8114611ed157600080fd5b50565b611edd81611a79565b8114611ee857600080fd5b50565b611ef481611aa3565b8114611eff57600080fd5b5056fea2646970667358221220f65addc3438c57402ae088a77ea0523c2271a84f376c287e6a781d541ddd88eb64736f6c63430008040033a26469706673582212201d5f656995e0ca0874d42d65585dee7dfb20ec55ff0a543c944d2c8e2b3acc2264736f6c63430008040033",
  "linkReferences": {},
  "deployedLinkReferences": {}
}