{
  "_format": "hh-sol-artifact-1",
  "contractName": "PostmintPointToken",
  "sourceName": "contracts/PostmintPointToken.sol",
  "abi": [
    {
      "inputs": [
        {
          "internalType": "uint256",
          "name": "initialSupply",
          "type": "uint256"
        }
      ],
      "stateMutability": "nonpayable",
      "type": "constructor"
    },
    {
      "anonymous": false,
      "inputs": [
        {
          "indexed": true,
          "internalType": "address",
          "name": "owner",
          "type": "address"
        },
        {
          "indexed": true,
          "internalType": "address",
          "name": "spender",
          "type": "address"
        },
        {
          "indexed": false,
          "internalType": "uint256",
          "name": "value",
          "type": "uint256"
        }
      ],
      "name": "Approval",
      "type": "event"
    },
    {
      "anonymous": false,
      "inputs": [
        {
          "indexed": true,
          "internalType": "address",
          "name": "previousOwner",
          "type": "address"
        },
        {
          "indexed": true,
          "internalType": "address",
          "name": "newOwner",
          "type": "address"
        }
      ],
      "name": "OwnershipTransferred",
      "type": "event"
    },
    {
      "anonymous": false,
      "inputs": [
        {
          "indexed": true,
          "internalType": "address",
          "name": "from",
          "type": "address"
        },
        {
          "indexed": true,
          "internalType": "address",
          "name": "to",
          "type": "address"
        },
        {
          "indexed": false,
          "internalType": "uint256",
          "name": "value",
          "type": "uint256"
        }
      ],
      "name": "Transfer",
      "type": "event"
    },
    {
      "inputs": [
        {
          "internalType": "address",
          "name": "owner",
          "type": "address"
        },
        {
          "internalType": "address",
          "name": "spender",
          "type": "address"
        }
      ],
      "name": "allowance",
      "outputs": [
        {
          "internalType": "uint256",
          "name": "",
          "type": "uint256"
        }
      ],
      "stateMutability": "view",
      "type": "function"
    },
    {
      "inputs": [
        {
          "internalType": "address",
          "name": "spender",
          "type": "address"
        },
        {
          "internalType": "uint256",
          "name": "amount",
          "type": "uint256"
        }
      ],
      "name": "approve",
      "outputs": [
        {
          "internalType": "bool",
          "name": "",
          "type": "bool"
        }
      ],
      "stateMutability": "nonpayable",
      "type": "function"
    },
    {
      "inputs": [
        {
          "internalType": "address",
          "name": "account",
          "type": "address"
        }
      ],
      "name": "balanceOf",
      "outputs": [
        {
          "internalType": "uint256",
          "name": "",
          "type": "uint256"
        }
      ],
      "stateMutability": "view",
      "type": "function"
    },
    {
      "inputs": [],
      "name": "decimals",
      "outputs": [
        {
          "internalType": "uint8",
          "name": "",
          "type": "uint8"
        }
      ],
      "stateMutability": "view",
      "type": "function"
    },
    {
      "inputs": [
        {
          "internalType": "address",
          "name": "spender",
          "type": "address"
        },
        {
          "internalType": "uint256",
          "name": "subtractedValue",
          "type": "uint256"
        }
      ],
      "name": "decreaseAllowance",
      "outputs": [
        {
          "internalType": "bool",
          "name": "",
          "type": "bool"
        }
      ],
      "stateMutability": "nonpayable",
      "type": "function"
    },
    {
      "inputs": [
        {
          "internalType": "address",
          "name": "spender",
          "type": "address"
        },
        {
          "internalType": "uint256",
          "name": "addedValue",
          "type": "uint256"
        }
      ],
      "name": "increaseAllowance",
      "outputs": [
        {
          "internalType": "bool",
          "name": "",
          "type": "bool"
        }
      ],
      "stateMutability": "nonpayable",
      "type": "function"
    },
    {
      "inputs": [
        {
          "internalType": "address",
          "name": "receiver",
          "type": "address"
        },
        {
          "internalType": "uint256",
          "name": "amount",
          "type": "uint256"
        }
      ],
      "name": "mintTo",
      "outputs": [],
      "stateMutability": "nonpayable",
      "type": "function"
    },
    {
      "inputs": [],
      "name": "name",
      "outputs": [
        {
          "internalType": "string",
          "name": "",
          "type": "string"
        }
      ],
      "stateMutability": "view",
      "type": "function"
    },
    {
      "inputs": [],
      "name": "owner",
      "outputs": [
        {
          "internalType": "address",
          "name": "",
          "type": "address"
        }
      ],
      "stateMutability": "view",
      "type": "function"
    },
    {
      "inputs": [],
      "name": "renounceOwnership",
      "outputs": [],
      "stateMutability": "nonpayable",
      "type": "function"
    },
    {
      "inputs": [
        {
          "internalType": "address",
          "name": "account",
          "type": "address"
        },
        {
          "internalType": "uint256",
          "name": "amount",
          "type": "uint256"
        }
      ],
      "name": "slash",
      "outputs": [],
      "stateMutability": "nonpayable",
      "type": "function"
    },
    {
      "inputs": [],
      "name": "symbol",
      "outputs": [
        {
          "internalType": "string",
          "name": "",
          "type": "string"
        }
      ],
      "stateMutability": "view",
      "type": "function"
    },
    {
      "inputs": [],
      "name": "totalSupply",
      "outputs": [
        {
          "internalType": "uint256",
          "name": "",
          "type": "uint256"
        }
      ],
      "stateMutability": "view",
      "type": "function"
    },
    {
      "inputs": [
        {
          "internalType": "address",
          "name": "to",
          "type": "address"
        },
        {
          "internalType": "uint256",
          "name": "amount",
          "type": "uint256"
        }
      ],
      "name": "transfer",
      "outputs": [
        {
          "internalType": "bool",
          "name": "",
          "type": "bool"
        }
      ],
      "stateMutability": "nonpayable",
      "type": "function"
    },
    {
      "inputs": [
        {
          "internalType": "address",
          "name": "from",
          "type": "address"
        },
        {
          "internalType": "address",
          "name": "to",
          "type": "address"
        },
        {
          "internalType": "uint256",
          "name": "amount",
          "type": "uint256"
        }
      ],
      "name": "transferFrom",
      "outputs": [
        {
          "internalType": "bool",
          "name": "",
          "type": "bool"
        }
      ],
      "stateMutability": "nonpayable",
      "type": "function"
    },
    {
      "inputs": [
        {
          "internalType": "address",
          "name": "newOwner",
          "type": "address"
        }
      ],
      "name": "transferOwnership",
      "outputs": [],
      "stateMutability": "nonpayable",
      "type": "function"
    }
  ],
  "bytecode": "0x60806040523480156200001157600080fd5b50604051620021a8380380620021a8833981810160405281019062000037919062000427565b6040518060400160405280601281526020017f506f73746d696e74506f696e74546f6b656e00000000000000000000000000008152506040518060400160405280600381526020017f5050540000000000000000000000000000000000000000000000000000000000815250620000c3620000b76200011060201b60201c565b6200011860201b60201c565b8160049080519060200190620000db92919062000360565b508060059080519060200190620000f492919062000360565b505050620001093382620001dc60201b60201c565b5062000619565b600033905090565b60008060009054906101000a900473ffffffffffffffffffffffffffffffffffffffff169050816000806101000a81548173ffffffffffffffffffffffffffffffffffffffff021916908373ffffffffffffffffffffffffffffffffffffffff1602179055508173ffffffffffffffffffffffffffffffffffffffff168173ffffffffffffffffffffffffffffffffffffffff167f8be0079c531659141344cd1fd0a4f28419497f9722a3daafe3b4186f6b6457e060405160405180910390a35050565b600073ffffffffffffffffffffffffffffffffffffffff168273ffffffffffffffffffffffffffffffffffffffff1614156200024f576040517f08c379a000000000000000000000000000000000000000000000000000000000815260040162000246906200048b565b60405180910390fd5b62000263600083836200035660201b60201c565b8060036000828254620002779190620004db565b9250508190555080600160008473ffffffffffffffffffffffffffffffffffffffff1673ffffffffffffffffffffffffffffffffffffffff1681526020019081526020016000206000828254620002cf9190620004db565b925050819055508173ffffffffffffffffffffffffffffffffffffffff16600073ffffffffffffffffffffffffffffffffffffffff167fddf252ad1be2c89b69c2b068fc378daa952ba7f163c4a11628f55a4df523b3ef83604051620003369190620004ad565b60405180910390a362000352600083836200035b60201b60201c565b5050565b505050565b505050565b8280546200036e9062000542565b90600052602060002090601f016020900481019282620003925760008555620003de565b82601f10620003ad57805160ff1916838001178555620003de565b82800160010185558215620003de579182015b82811115620003dd578251825591602001919060010190620003c0565b5b509050620003ed9190620003f1565b5090565b5b808211156200040c576000816000905550600101620003f2565b5090565b6000815190506200042181620005ff565b92915050565b6000602082840312156200043a57600080fd5b60006200044a8482850162000410565b91505092915050565b600062000462601f83620004ca565b91506200046f82620005d6565b602082019050919050565b620004858162000538565b82525050565b60006020820190508181036000830152620004a68162000453565b9050919050565b6000602082019050620004c460008301846200047a565b92915050565b600082825260208201905092915050565b6000620004e88262000538565b9150620004f58362000538565b9250827fffffffffffffffffffffffffffffffffffffffffffffffffffffffffffffffff038211156200052d576200052c62000578565b5b828201905092915050565b6000819050919050565b600060028204905060018216806200055b57607f821691505b60208210811415620005725762000571620005a7565b5b50919050565b7f4e487b7100000000000000000000000000000000000000000000000000000000600052601160045260246000fd5b7f4e487b7100000000000000000000000000000000000000000000000000000000600052602260045260246000fd5b7f45524332303a206d696e7420746f20746865207a65726f206164647265737300600082015250565b6200060a8162000538565b81146200061657600080fd5b50565b611b7f80620006296000396000f3fe608060405234801561001057600080fd5b50600436106101005760003560e01c806370a0823111610097578063a457c2d711610066578063a457c2d71461029d578063a9059cbb146102cd578063dd62ed3e146102fd578063f2fde38b1461032d57610100565b806370a0823114610227578063715018a6146102575780638da5cb5b1461026157806395d89b411461027f57610100565b806323b872dd116100d357806323b872dd1461018d578063313ce567146101bd57806339509351146101db578063449a52f81461020b57610100565b806302fb4d851461010557806306fdde0314610121578063095ea7b31461013f57806318160ddd1461016f575b600080fd5b61011f600480360381019061011a91906111a7565b610349565b005b61012961035f565b6040516101369190611432565b60405180910390f35b610159600480360381019061015491906111a7565b6103f1565b6040516101669190611417565b60405180910390f35b610177610414565b60405161018491906115d4565b60405180910390f35b6101a760048036038101906101a29190611158565b61041e565b6040516101b49190611417565b60405180910390f35b6101c561044d565b6040516101d291906115ef565b60405180910390f35b6101f560048036038101906101f091906111a7565b610456565b6040516102029190611417565b60405180910390f35b610225600480360381019061022091906111a7565b61048d565b005b610241600480360381019061023c91906110f3565b6104a3565b60405161024e91906115d4565b60405180910390f35b61025f6104ec565b005b610269610500565b60405161027691906113fc565b60405180910390f35b610287610529565b6040516102949190611432565b60405180910390f35b6102b760048036038101906102b291906111a7565b6105bb565b6040516102c49190611417565b60405180910390f35b6102e760048036038101906102e291906111a7565b610632565b6040516102f49190611417565b60405180910390f35b6103176004803603810190610312919061111c565b610655565b60405161032491906115d4565b60405180910390f35b610347600480360381019061034291906110f3565b6106dc565b005b610351610760565b61035b82826107de565b5050565b60606004805461036e90611738565b80601f016020809104026020016040519081016040528092919081815260200182805461039a90611738565b80156103e75780601f106103bc576101008083540402835291602001916103e7565b820191906000526020600020905b8154815290600101906020018083116103ca57829003601f168201915b5050505050905090565b6000806103fc6109b7565b90506104098185856109bf565b600191505092915050565b6000600354905090565b6000806104296109b7565b9050610436858285610b8a565b610441858585610c16565b60019150509392505050565b60006012905090565b6000806104616109b7565b90506104828185856104738589610655565b61047d9190611626565b6109bf565b600191505092915050565b610495610760565b61049f8282610e9a565b5050565b6000600160008373ffffffffffffffffffffffffffffffffffffffff1673ffffffffffffffffffffffffffffffffffffffff168152602001908152602001600020549050919050565b6104f4610760565b6104fe6000610ffb565b565b60008060009054906101000a900473ffffffffffffffffffffffffffffffffffffffff16905090565b60606005805461053890611738565b80601f016020809104026020016040519081016040528092919081815260200182805461056490611738565b80156105b15780601f10610586576101008083540402835291602001916105b1565b820191906000526020600020905b81548152906001019060200180831161059457829003601f168201915b5050505050905090565b6000806105c66109b7565b905060006105d48286610655565b905083811015610619576040517f08c379a000000000000000000000000000000000000000000000000000000000815260040161061090611594565b60405180910390fd5b61062682868684036109bf565b60019250505092915050565b60008061063d6109b7565b905061064a818585610c16565b600191505092915050565b6000600260008473ffffffffffffffffffffffffffffffffffffffff1673ffffffffffffffffffffffffffffffffffffffff16815260200190815260200160002060008373ffffffffffffffffffffffffffffffffffffffff1673ffffffffffffffffffffffffffffffffffffffff16815260200190815260200160002054905092915050565b6106e4610760565b600073ffffffffffffffffffffffffffffffffffffffff168173ffffffffffffffffffffffffffffffffffffffff161415610754576040517f08c379a000000000000000000000000000000000000000000000000000000000815260040161074b90611494565b60405180910390fd5b61075d81610ffb565b50565b6107686109b7565b73ffffffffffffffffffffffffffffffffffffffff16610786610500565b73ffffffffffffffffffffffffffffffffffffffff16146107dc576040517f08c379a00000000000000000000000000000000000000000000000000000000081526004016107d390611514565b60405180910390fd5b565b600073ffffffffffffffffffffffffffffffffffffffff168273ffffffffffffffffffffffffffffffffffffffff16141561084e576040517f08c379a000000000000000000000000000000000000000000000000000000000815260040161084590611534565b60405180910390fd5b61085a826000836110bf565b6000600160008473ffffffffffffffffffffffffffffffffffffffff1673ffffffffffffffffffffffffffffffffffffffff168152602001908152602001600020549050818110156108e1576040517f08c379a00000000000000000000000000000000000000000000000000000000081526004016108d890611474565b60405180910390fd5b818103600160008573ffffffffffffffffffffffffffffffffffffffff1673ffffffffffffffffffffffffffffffffffffffff168152602001908152602001600020819055508160036000828254610939919061167c565b92505081905550600073ffffffffffffffffffffffffffffffffffffffff168373ffffffffffffffffffffffffffffffffffffffff167fddf252ad1be2c89b69c2b068fc378daa952ba7f163c4a11628f55a4df523b3ef8460405161099e91906115d4565b60405180910390a36109b2836000846110c4565b505050565b600033905090565b600073ffffffffffffffffffffffffffffffffffffffff168373ffffffffffffffffffffffffffffffffffffffff161415610a2f576040517f08c379a0000000000000000000000000000000000000000000000000000000008152600401610a2690611574565b60405180910390fd5b600073ffffffffffffffffffffffffffffffffffffffff168273ffffffffffffffffffffffffffffffffffffffff161415610a9f576040517f08c379a0000000000000000000000000000000000000000000000000000000008152600401610a96906114b4565b60405180910390fd5b80600260008573ffffffffffffffffffffffffffffffffffffffff1673ffffffffffffffffffffffffffffffffffffffff16815260200190815260200160002060008473ffffffffffffffffffffffffffffffffffffffff1673ffffffffffffffffffffffffffffffffffffffff168152602001908152602001600020819055508173ffffffffffffffffffffffffffffffffffffffff168373ffffffffffffffffffffffffffffffffffffffff167f8c5be1e5ebec7d5bd14f71427d1e84f3dd0314c0f7b2291e5b200ac8c7c3b92583604051610b7d91906115d4565b60405180910390a3505050565b6000610b968484610655565b90507fffffffffffffffffffffffffffffffffffffffffffffffffffffffffffffffff8114610c105781811015610c02576040517f08c379a0000000000000000000000000000000000000000000000000000000008152600401610bf9906114d4565b60405180910390fd5b610c0f84848484036109bf565b5b50505050565b600073ffffffffffffffffffffffffffffffffffffffff168373ffffffffffffffffffffffffffffffffffffffff161415610c86576040517f08c379a0000000000000000000000000000000000000000000000000000000008152600401610c7d90611554565b60405180910390fd5b600073ffffffffffffffffffffffffffffffffffffffff168273ffffffffffffffffffffffffffffffffffffffff161415610cf6576040517f08c379a0000000000000000000000000000000000000000000000000000000008152600401610ced90611454565b60405180910390fd5b610d018383836110bf565b6000600160008573ffffffffffffffffffffffffffffffffffffffff1673ffffffffffffffffffffffffffffffffffffffff16815260200190815260200160002054905081811015610d88576040517f08c379a0000000000000000000000000000000000000000000000000000000008152600401610d7f906114f4565b60405180910390fd5b818103600160008673ffffffffffffffffffffffffffffffffffffffff1673ffffffffffffffffffffffffffffffffffffffff1681526020019081526020016000208190555081600160008573ffffffffffffffffffffffffffffffffffffffff1673ffffffffffffffffffffffffffffffffffffffff1681526020019081526020016000206000828254610e1d9190611626565b925050819055508273ffffffffffffffffffffffffffffffffffffffff168473ffffffffffffffffffffffffffffffffffffffff167fddf252ad1be2c89b69c2b068fc378daa952ba7f163c4a11628f55a4df523b3ef84604051610e8191906115d4565b60405180910390a3610e948484846110c4565b50505050565b600073ffffffffffffffffffffffffffffffffffffffff168273ffffffffffffffffffffffffffffffffffffffff161415610f0a576040517f08c379a0000000000000000000000000000000000000000000000000000000008152600401610f01906115b4565b60405180910390fd5b610f16600083836110bf565b8060036000828254610f289190611626565b9250508190555080600160008473ffffffffffffffffffffffffffffffffffffffff1673ffffffffffffffffffffffffffffffffffffffff1681526020019081526020016000206000828254610f7e9190611626565b925050819055508173ffffffffffffffffffffffffffffffffffffffff16600073ffffffffffffffffffffffffffffffffffffffff167fddf252ad1be2c89b69c2b068fc378daa952ba7f163c4a11628f55a4df523b3ef83604051610fe391906115d4565b60405180910390a3610ff7600083836110c4565b5050565b60008060009054906101000a900473ffffffffffffffffffffffffffffffffffffffff169050816000806101000a81548173ffffffffffffffffffffffffffffffffffffffff021916908373ffffffffffffffffffffffffffffffffffffffff1602179055508173ffffffffffffffffffffffffffffffffffffffff168173ffffffffffffffffffffffffffffffffffffffff167f8be0079c531659141344cd1fd0a4f28419497f9722a3daafe3b4186f6b6457e060405160405180910390a35050565b505050565b505050565b6000813590506110d881611b1b565b92915050565b6000813590506110ed81611b32565b92915050565b60006020828403121561110557600080fd5b6000611113848285016110c9565b91505092915050565b6000806040838503121561112f57600080fd5b600061113d858286016110c9565b925050602061114e858286016110c9565b9150509250929050565b60008060006060848603121561116d57600080fd5b600061117b868287016110c9565b935050602061118c868287016110c9565b925050604061119d868287016110de565b9150509250925092565b600080604083850312156111ba57600080fd5b60006111c8858286016110c9565b92505060206111d9858286016110de565b9150509250929050565b6111ec816116b0565b82525050565b6111fb816116c2565b82525050565b600061120c8261160a565b6112168185611615565b9350611226818560208601611705565b61122f816117c8565b840191505092915050565b6000611247602383611615565b9150611252826117d9565b604082019050919050565b600061126a602283611615565b915061127582611828565b604082019050919050565b600061128d602683611615565b915061129882611877565b604082019050919050565b60006112b0602283611615565b91506112bb826118c6565b604082019050919050565b60006112d3601d83611615565b91506112de82611915565b602082019050919050565b60006112f6602683611615565b91506113018261193e565b604082019050919050565b6000611319602083611615565b91506113248261198d565b602082019050919050565b600061133c602183611615565b9150611347826119b6565b604082019050919050565b600061135f602583611615565b915061136a82611a05565b604082019050919050565b6000611382602483611615565b915061138d82611a54565b604082019050919050565b60006113a5602583611615565b91506113b082611aa3565b604082019050919050565b60006113c8601f83611615565b91506113d382611af2565b602082019050919050565b6113e7816116ee565b82525050565b6113f6816116f8565b82525050565b600060208201905061141160008301846111e3565b92915050565b600060208201905061142c60008301846111f2565b92915050565b6000602082019050818103600083015261144c8184611201565b905092915050565b6000602082019050818103600083015261146d8161123a565b9050919050565b6000602082019050818103600083015261148d8161125d565b9050919050565b600060208201905081810360008301526114ad81611280565b9050919050565b600060208201905081810360008301526114cd816112a3565b9050919050565b600060208201905081810360008301526114ed816112c6565b9050919050565b6000602082019050818103600083015261150d816112e9565b9050919050565b6000602082019050818103600083015261152d8161130c565b9050919050565b6000602082019050818103600083015261154d8161132f565b9050919050565b6000602082019050818103600083015261156d81611352565b9050919050565b6000602082019050818103600083015261158d81611375565b9050919050565b600060208201905081810360008301526115ad81611398565b9050919050565b600060208201905081810360008301526115cd816113bb565b9050919050565b60006020820190506115e960008301846113de565b92915050565b600060208201905061160460008301846113ed565b92915050565b600081519050919050565b600082825260208201905092915050565b6000611631826116ee565b915061163c836116ee565b9250827fffffffffffffffffffffffffffffffffffffffffffffffffffffffffffffffff038211156116715761167061176a565b5b828201905092915050565b6000611687826116ee565b9150611692836116ee565b9250828210156116a5576116a461176a565b5b828203905092915050565b60006116bb826116ce565b9050919050565b60008115159050919050565b600073ffffffffffffffffffffffffffffffffffffffff82169050919050565b6000819050919050565b600060ff82169050919050565b60005b83811015611723578082015181840152602081019050611708565b83811115611732576000848401525b50505050565b6000600282049050600182168061175057607f821691505b6020821081141561176457611763611799565b5b50919050565b7f4e487b7100000000000000000000000000000000000000000000000000000000600052601160045260246000fd5b7f4e487b7100000000000000000000000000000000000000000000000000000000600052602260045260246000fd5b6000601f19601f8301169050919050565b7f45524332303a207472616e7366657220746f20746865207a65726f206164647260008201527f6573730000000000000000000000000000000000000000000000000000000000602082015250565b7f45524332303a206275726e20616d6f756e7420657863656564732062616c616e60008201527f6365000000000000000000000000000000000000000000000000000000000000602082015250565b7f4f776e61626c653a206e6577206f776e657220697320746865207a65726f206160008201527f6464726573730000000000000000000000000000000000000000000000000000602082015250565b7f45524332303a20617070726f766520746f20746865207a65726f20616464726560008201527f7373000000000000000000000000000000000000000000000000000000000000602082015250565b7f45524332303a20696e73756666696369656e7420616c6c6f77616e6365000000600082015250565b7f45524332303a207472616e7366657220616d6f756e742065786365656473206260008201527f616c616e63650000000000000000000000000000000000000000000000000000602082015250565b7f4f776e61626c653a2063616c6c6572206973206e6f7420746865206f776e6572600082015250565b7f45524332303a206275726e2066726f6d20746865207a65726f2061646472657360008201527f7300000000000000000000000000000000000000000000000000000000000000602082015250565b7f45524332303a207472616e736665722066726f6d20746865207a65726f20616460008201527f6472657373000000000000000000000000000000000000000000000000000000602082015250565b7f45524332303a20617070726f76652066726f6d20746865207a65726f2061646460008201527f7265737300000000000000000000000000000000000000000000000000000000602082015250565b7f45524332303a2064656372656173656420616c6c6f77616e63652062656c6f7760008201527f207a65726f000000000000000000000000000000000000000000000000000000602082015250565b7f45524332303a206d696e7420746f20746865207a65726f206164647265737300600082015250565b611b24816116b0565b8114611b2f57600080fd5b50565b611b3b816116ee565b8114611b4657600080fd5b5056fea2646970667358221220bd2f7b9f9a87bfc7f9b9c578bf224164df7cdd07856347b27549f94e7f23e31864736f6c63430008040033",
  "linkReferences": {},
  "deployedLinkReferences": {}
}